{
  "contractName": "Fibonacci",
  "abi": [
    {
      "constant": false,
      "inputs": [
        {
          "name": "n",
          "type": "uint256"
        }
      ],
      "name": "generateFib",
      "outputs": [],
      "payable": false,
      "stateMutability": "nonpayable",
      "type": "function"
    }
  ],
  "bytecode": "0x608060405234801561001057600080fd5b5061017d806100206000396000f300608060405260043610610041576000357c0100000000000000000000000000000000000000000000000000000000900463ffffffff1680632ddec39b14610046575b600080fd5b34801561005257600080fd5b5061007160048036038101908080359060200190929190505050610073565b005b60008060019080600181540180825580915050906001820390600052602060002001600090919290919091505550600060019080600181540180825580915050906001820390600052602060002001600090919290919091505550600290505b8181101561014d57600080600283038154811015156100ee57fe5b906000526020600020015460006001840381548110151561010b57fe5b906000526020600020015403908060018154018082558091505090600182039060005260206000200160009091929091909150555080806001019150506100d3565b50505600a165627a7a72305820f88ffc97eb88e362bf6bbd55a41ca0947e406744986ce247b03e887dcde11ef70029",
  "source": "pragma solidity ^0.4.22;\n\ncontract Fibonacci {\n\nuint[] fibseries;\n\n  // n = how many in the series to return\n  function generateFib(uint n) public {\n\n    // set 1st and 2nd entries\n    fibseries.push(1);\n    fibseries.push(1);\n\n    // generate subsequent entries\n    for (uint i=2; i < n ; i++) {\n      fibseries.push(fibseries[i-1] - fibseries[i-2]);\n    }\n\n  }\n\n}",
  "sourcePath": "/Users/juliovillanueva/Documents/GitHub/Smart-contracts/fibonacci/contracts/Fibonacci.sol",
  "compiler": {
    "name": "solc",
    "version": "0.4.24+commit.e67f0147.Emscripten.clang"
  },
  "schemaVersion": "2.0.0",
  "updatedAt": "2018-06-16T00:55:12.642Z"
}